S01500004761726167652053797374656D2E7372656323
S11300000C94BA000C94C9030C943C040C94D700CF
S11300100C94D7000C94D7000C94D7000C94D70000
S11300200C94D7000C94D7000C94D7000C94D700F0
S11300300C94D7000C94D7000C94D7000C94D700E0
S11300400C94D7000C94D7000C94D7000C94D700D0
S11300500C94D700F90112022B0244025C025C02E8
S11300605C025C025C025C025C025C025C025C029C
S11300705C025C025C025C025C025C025C025C028C
S11300805C025C025C025C025C025C025C025C027C
S11300905C025C02F90112022B0244026902820230
S11300A09B02B402CC02CC02CC02CC02CC02CC0225
S11300B0CC02CC02CC02CC02CC02CC02CC02CC02CC
S11300C0CC02CC02CC02CC02CC02CC02CC02CC02BC
S11300D0CC02CC02CC02CC02CC02CC026902820259
S11300E09B02B402D802E002E802F002F702F7022F
S11300F0F702F702F702F702F702F702F702F70234
S1130100F702F702F702F702F702F702F702F70223
S1130110F702F702F702F702F702F702F702F70213
S1130120F702F702D802E002E802F00203030D032B
S1130130170321032A032A032A032A032A032A036F
S11301402A032A032A032A032A032A032A032A0343
S11301502A032A032A032A032A032A032A032A0333
S11301602A032A032A032A032A032A0303030D0367
S11301701703210311241FBECFE5D8E0DEBFCDBF96
S113018010E0A0E6B0E0E8E9F9E002C005900D92C5
S1130190AA3AB107D9F720E0AAEAB0E001C01D925B
S11301A0AB3AB207E1F70E94A3030C94CA040C947F
S11301B0000041E063E082E40E945D02000040E050
S11301C063E082E40E945D020895CF93C82F40E06B
S11301D061E082E40E945D0240E062E082E40E9409
S11301E05D026C2F81E40E94CD020E94D9006C2F25
S11301F06295607F81E40E94CD020E94D90083EC65
S113020099E00197F1F700C00000CF91089541E013
S113021061E082E40E94ED0141E062E082E40E9438
S1130220ED0141E063E082E40E94ED0161E081E4DC
S11302300E94F80285EA9EE00197F1F700C00000F1
S113024083E30E94E50082E30E94E50088E20E94C5
S1130250E5008EE00E94E50081E00E94E50086E072
S11302600E94E5000895CF93C82F41E061E082E445
S11302700E945D0240E062E082E40E945D026C2F15
S113028081E40E94CD020E94D9006C2F6295607FA8
S113029081E40E94CD020E94D90083EC99E0019789
S11302A0F1F700C00000CF9108950F931F93CF93EF
S11302B0FC018081882359F08F01C0E00E94330142
S11302C0CF5FF801EC0FF11D80818111F7CFCF9141
S11302D01F910F91089581E00E94E5000895811116
S11302E005C080E8860F0E94E500089580EC860F23
S11302F00E94E5000895CF93DF93CDB7DEB76097F2
S11303000FB6F894DEBF0FBECDBF4AE050E0BE0189
S11303106F5F7F4F0E948A040E94550160960FB65A
S1130320F894DEBF0FBECDBFDF91CF910895FF9249
S11303300F931F93CF93DF93EC01F12C00E110E0B6
S113034013C080E88F0D0E94E500CE010E94550184
S11303502FE986E891E0215080409040E1F700C009
S113036000000E946B01F394FE0101900020E9F764
S11303703197EC1BFD0B8F2D90E098012E1B3F0B4A
S113038082179307F0F2DF91CF911F910F91FF90A5
S113039008950F931F93CF938C01FC0101900020CB
S11303A0E9F7C82FCE1BCF5EA1F080E88C0F0E9426
S11303B0E500C8010E9455012FE986E891E021502B
S11303C080409040E1F700C000000E946B01C150E2
S11303D061F7CF911F910F91089590E0FC01E154D2
S11303E0F109E432F10508F067C0E65DFF4F0C94B3
S11303F08404413059F42AB381E090E002C0880FAC
S1130400991F6A95E2F7822B8ABB08952AB381E08B
S113041090E002C0880F991F6A95E2F780958223C5
S11304208ABB0895413059F427B381E090E002C0BB
S1130430880F991F6A95E2F7822B87BB089527B32B
S113044081E090E002C0880F991F6A95E2F78095D9
S1130450822387BB0895413059F424B381E090E0AE
S113046002C0880F991F6A95E2F7822B84BB089516
S113047024B381E090E002C0880F991F6A95E2F7E7
S11304808095822384BB0895413059F421B381E0DF
S113049090E002C0880F991F6A95E2F7822B81BB16
S11304A0089521B381E090E002C0880F991F6A95F6
S11304B0E2F78095822381BB089590E0FC01E1542A
S11304C0F109E432F10508F067C0E25BFF4F0C94D8
S11304D08404413059F42BB381E090E002C0880FCA
S11304E0991F6A95E2F7822B8BBB08952BB381E0A9
S11304F090E002C0880F991F6A95E2F780958223E5
S11305008BBB0895413059F428B381E090E002C0D8
S1130510880F991F6A95E2F7822B88BB089528B348
S113052081E090E002C0880F991F6A95E2F78095F8
S1130530822388BB0895413059F425B381E090E0CB
S113054002C0880F991F6A95E2F7822B85BB089534
S113055025B381E090E002C0880F991F6A95E2F705
S11305608095822385BB0895413059F422B381E0FC
S113057090E002C0880F991F6A95E2F7822B82BB34
S1130580089522B381E090E002C0880F991F6A9514
S1130590E2F78095822382BB089590E0FC01E15448
S11305A0F109E432F10518F5EE58FF4F0C94840478
S11305B08BB38F708BBB8BB3607F682B6BBB089541
S11305C088B38F7088BB88B3607F682B68BB08953D
S11305D085B38F7085BB85B3607F682B65BB089539
S11305E082B38F7082BB82B3607F682B62BB089535
S11305F090E0FC01E154F109E432F10558F5EA56C2
S1130600FF4F0C948404611104C08AB38F708ABBB9
S113061008958AB3806F8ABB0895611104C087B3BB
S11306208F7087BB06C087B3806F87BB06C061111C
S113063004C084B38F7084BB089584B3806F84BB7B
S11306400895611104C081B38F7081BB089581B393
S1130650806F81BB0895863031F0873031F1853069
S113066009F04EC044C0611107C085B78E7F85BFB5
S113067085B78D7F85BF0895613039F485B7816072
S113068085BF85B78D7F85BF0895623039F485B7FE
S11306908E7F85BF85B7826085BF089585B78160E9
S11306A085BF85B7826085BF0895611107C085B78E
S11306B08B7F85BF85B7877F85BF0895613039F407
S11306C085B7846085BF85B7877F85BF089562300D
S11306D039F485B78B7F85BF85B7886085BF08955A
S11306E085B7846085BF85B7886085BF089562300B
S11306F021F484B78F7B84BF089584B7806484BF5A
S11307000895863029F0873039F0853061F408C0C7
S11307108BB780648BBF08958BB780688BBF0895B7
S11307208BB780628BBF089563E086E00E942B0341
S113073086E00E94810363E087E00E942B0387E048
S11307400E9481030895CF93DF93CDB7DEB7279737
S11307500FB6F894DEBF0FBECDBF0E9407010E9402
S11307609403789441E060E081E40E94ED0187E025
S1130770EFE6F0E0DE01119601900D928A95E1F723
S1130780CE0101960E949701CE0101960E94C901F3
S1130790F7CF1F920F920FB60F9211242F933F930E
S11307A04F935F936F937F938F939F93AF93BF9375
S11307B0EF93FF939091AA0081E0890F8093AA00A0
S11307C08B3058F50E946B0186E790E00E9455013A
S11307D060E081E00E946F0180E690E00E94550194
S11307E08091AA0090E00E947B0140E060E081E6F5
S11307F00E945D028091AA008A3029F441E060E001
S113080081E60E945D022FE38DE093E02150804059
S11308109040E1F700C000001EC09093AA000E941F
S11308206B0187E890E00E94550160E081E00E943E
S11308306F018DE890E00E94550141E060E081E69F
S11308400E945D022FE38DE093E0215080409040B0
S1130850E1F700C00000FF91EF91BF91AF919F912C
S11308608F917F916F915F914F913F912F910F9055
S11308700FBE0F901F9018951F920F920FB60F92F4
S113088011242F933F934F935F936F937F938F9391
S11308909F93AF93BF93EF93FF9340E060E081E4B5
S11308A00E945D020E946B018CE990E00E94550158
S11308B060E081E00E946F0180E690E00E945501B3
S11308C08091AA0081508093AA0090E00E947B014D
S11308D02FE38DE093E0215080409040E1F700C089
S11308E000000E946B01FF91EF91BF91AF919F9126
S11308F08F917F916F915F914F913F912F910F90C5
S11309000FBE0F901F901895EE0FFF1F0590F491E6
S1130910E02D09944532510520F4423010F00C9436
S11309209504FB011082CB010895BB274A3031F4B2
S1130930992322F4BDE2909581959F4F0C94A104D4
S1130940BB27FB015527AA27880F991FAA1FA417A5
S113095010F0A41B83955051B9F7A05DAA3308F099
S1130960A95DA193009779F7B111B1931192CB01CD
S11309700C94BA04DC01FC01672F71917723E1F731
S1130980329704C07C916D9370836291AE17BF0758
S10B0990C8F30895F894FFCFA9
S11309984E6F2E6F6620636172732069732000475F
S11309A861726167650041206E657720636172201A
S11309B8656E7465727300536F7272790047617261
S11309C86167652069732066756C6C00456D707489
S10D09D87920706C616365203A0019
S9030000FC
