S010000050617373436F64652E7372656302
S11300000C9426010C943B010C943B010C943B0191
S11300100C943B010C943B010C943B010C943B016C
S11300200C943B010C943B010C943B010C943B015C
S11300300C943B010C943B010C943B010C943B014C
S11300400C943B010C943B010C943B010C943B013C
S11300500C943B016F028802A102BA02D202D202BE
S1130060D202D202D202D202D202D202D202D202EC
S1130070D202D202D202D202D202D202D202D202DC
S1130080D202D202D202D202D202D202D202D202CC
S1130090D202D2026F028802A102BA02DF02F8027F
S11300A011032A034203420342034203420342036D
S11300B04203420342034203420342034203420314
S11300C04203420342034203420342034203420304
S11300D0420342034203420342034203DF02F802A3
S11300E011032A034E035703600369037203720367
S11300F07203720372037203720372037203720354
S11301007203720372037203720372037203720343
S11301107203720372037203720372037203720333
S1130120720372034E035703600369037F0386035C
S11301308D0394039A039A039A039A039A039A03E6
S11301409A039A039A039A039A039A039A039A03C3
S11301509A039A039A039A039A039A039A039A03B3
S11301609A039A039A039A039A039A037F038603D2
S11301708D039403A603AE03B603BE03C503C503F0
S1130180C503C503C503C503C503C503C503C5032B
S1130190C503C503C503C503C503C503C503C5031B
S11301A0C503C503C503C503C503C503C503C5030B
S11301B0C503C503A603AE03B603BE03D103DB0325
S11301C0E503EF03F803F803F803F803F803F8036F
S11301D0F803F803F803F803F803F803F803F80343
S11301E0F803F803F803F803F803F803F803F80333
S11301F0F803F803F803F803F803F803D103DB0367
S1130200E503EF0304040E04180422042B042B0456
S11302102B042B042B042B042B042B042B042B0462
S11302202B042B042B042B042B042B042B042B0452
S11302302B042B042B042B042B042B042B042B0442
S11302402B042B0404040E041804220411241FBEDE
S1130250CFE5D8E0DEBFCDBF10E0A0E6B0E0E2E835
S1130260FAE002C005900D92AA3FB107D9F70E94A7
S11302702C040C943F050C94000061E083E60E947A
S1130280F90360E083E60E94C60361E083E60E940E
S113029074030895DF92EF92FF920F931F93CF930D
S11302A0DF930F2EF0E6EF2EF0E0FF2EF02DD0E0DE
S11302B0D12C61E083E60E94740340E06D2F83E655
S11302C00E94D3028701C4E06C2F83E60E9443039B
S11302D0811111C02FE58AEE90E0215080409040BA
S11302E0E1F700C000006C2F83E60E9443038111F4
S11302F002C0F801D080CF5F0F5F1F4FC73021F7D6
S1130300DF5FF3E0EF0EF11CD43099F68D2DDF9111
S1130310CF911F910F91FF90EF90DF90089541E0EE
S113032063E082E40E94D302000040E063E082E4E0
S11303300E94D3020895CF93C82F40E061E082E485
S11303400E94D30240E062E082E40E94D3026C2F58
S113035081E40E949B030E948F016C2F6295607F51
S113036081E40E949B030E948F0183EC99E0019732
S1130370F1F700C00000CF91089541E061E082E40C
S11303800E94630241E062E082E40E94630241E071
S113039063E082E40E94630261E081E40E94C60398
S11303A085EA9EE00197F1F700C0000083E30E9414
S11303B09B0182E30E949B0188E20E949B018EE0E4
S11303C00E949B0181E00E949B0186E00E949B01A8
S11303D00895CF93C82F41E061E082E40E94D302E4
S11303E040E062E082E40E94D3026C2F81E40E9428
S11303F09B030E948F016C2F6295607F81E40E94B1
S11304009B030E948F0183EC99E00197F1F700C0F0
S11304100000CF9108950F931F93CF93FC01808127
S1130420882359F08F01C0E00E94E901CF5FF801F1
S1130430EC0FF11D80818111F7CFCF911F910F91A6
S1130440089581E00E949B010895811105C080E810
S1130450860F0E949B01089580EC860F0E949B01E9
S11304600895FF920F931F93CF93DF93EC01F12C28
S113047000E110E013C080E88F0D0E949B01CE01C3
S11304800E940B022FE986E891E0215080409040C1
S1130490E1F700C000000E942102F394FE010190E4
S11304A00020E9F73197EC1BFD0B8F2D90E09801AC
S11304B02E1B3F0B82179307F0F2DF91CF911F9110
S11304C00F91FF90089590E0FC01E154F109E432AA
S11304D0F10508F067C0E65DFF4F0C94300541302C
S11304E059F42AB381E090E002C0880F991F6A95FD
S11304F0E2F7822B8ABB08952AB381E090E002C020
S1130500880F991F6A95E2F7809582238ABB089524
S1130510413059F427B381E090E002C0880F991F5D
S11305206A95E2F7822B87BB089527B381E090E0B8
S113053002C0880F991F6A95E2F78095822387BBD2
S11305400895413059F424B381E090E002C0880F4B
S1130550991F6A95E2F7822B84BB089524B381E046
S113056090E002C0880F991F6A95E2F78095822374
S113057084BB0895413059F421B381E090E002C076
S1130580880F991F6A95E2F7822B81BB089521B3E6
S113059081E090E002C0880F991F6A95E2F7809588
S11305A0822381BB089590E0FC01E154F109E43217
S11305B0F10508F067C0E25BFF4F0C943005413051
S11305C059F42BB381E090E002C0880F991F6A951B
S11305D0E2F7822B8BBB08952BB381E090E002C03D
S11305E0880F991F6A95E2F7809582238BBB089543
S11305F0413059F428B381E090E002C0880F991F7C
S11306006A95E2F7822B88BB089528B381E090E0D5
S113061002C0880F991F6A95E2F78095822388BBF0
S11306200895413059F425B381E090E002C0880F69
S1130630991F6A95E2F7822B85BB089525B381E063
S113064090E002C0880F991F6A95E2F78095822393
S113065085BB0895413059F422B381E090E002C093
S1130660880F991F6A95E2F7822B82BB089522B303
S113067081E090E002C0880F991F6A95E2F78095A7
S1130680822382BB089590E0FC01E154F109E43235
S1130690F10540F5EE58FF4F0C94300589B390E016
S11306A002C0959587956A95E2F78170089586B39F
S11306B090E002C0959587956A95E2F78170089558
S11306C083B390E002C0959587956A95E2F78170AF
S11306D0089580B390E002C0959587956A95E2F7F6
S11306E0817008958FEF089590E0FC01E154F109C1
S11306F0E432F105F8F4EA56FF4F0C94300581E03A
S1130700611101C080E081958BBB089581E0611186
S113071001C080E0819588BB089581E0611101C02A
S113072080E0819585BB089581E0611101C080E07E
S1130730819582BB089590E0FC01E154F109E43213
S1130740F10518F5E654FF4F0C9430058BB38F7008
S11307508BBB8BB3607F682B6BBB089588B38F70A2
S113076088BB88B3607F682B68BB089585B38F709E
S113077085BB85B3607F682B65BB089582B38F709A
S113078082BB82B3607F682B62BB089590E0FC015A
S1130790E154F109E432F10558F5E252FF4F0C94AB
S11307A03005611104C08AB38F708ABB08958AB37F
S11307B0806F8ABB0895611104C087B38F7087BBB3
S11307C006C087B3806F87BB06C0611104C084B3C1
S11307D08F7084BB089584B3806F84BB08956111C6
S11307E004C081B38F7081BB089581B3806F81BBD6
S11307F0089590E0FC01E154F109E432F10558F563
S1130800EE5FFE4F0C943005611104C08AB3807F03
S11308108ABB08958AB38F608ABB0895611104C0AE
S113082087B3807F87BB06C087B38F6087BB06C052
S1130830611104C084B3807F84BB089584B38F6046
S113084084BB0895611104C081B3807F81BB089586
S113085081B38F6081BB0895CF93DF93CDB7DEB7AB
S113086066970FB6F894DEBF0FBECDBF86E0EFEEFD
S1130870F0E0DE01119601900D928A95E1F70E9455
S1130880BD010E943D0185E0E5EFF0E0DE015296F6
S113089001900D928A95E1F78CE690E00E94310276
S11308A060E080E00E94250284E790E00E940B0251
S11308B060E081E00E94250285E890E00E940B023E
S11308C02FE986E891E0215080409040E1F700C094
S11308D000000E944A018823E1F3813321F082332E
S11308E009F46FC0D9CF0E9421028FE890E00E94E2
S11308F00B0260E081E00E9425027E01ECE0EE0E36
S1130900F11C10E00E944A01882351F0F701819301
S11309107F018AE20E94E9011F5F153019F0F2CFCE
S1130920153080F30E942102FFE32DE083E0F150B3
S113093020408040E1F700C00000BE016F5F7F4FA0
S1130940CE010C960E943605892B69F58EE990E05C
S11309500E940B0260E081E00E9425027E0192E188
S1130960E90EF11C10E00E944A01882351F0F701BE
S113097081937F018AE20E94E9011F5F143019F01C
S1130980F2CF143080F30E9421028FEA90E00E949B
S11309900B02FFEB27E289E0F15020408040E1F7B1
S11309A000C0000079CF87EB90E00E940B029FEB20
S11309B0E7E2F9E09150E040F040E1F700C00000C8
S11309C06BCF0E94210283EC90E00E940B0260E056
S11309D081E00E9425027E0127E0E20EF11C10E076
S11309E00E944A01882351F0F70181937F018AE232
S11309F00E94E9011F5F143019F0F2CF143080F324
S1130A000E942102FFE32DE083E0F150204080406A
S1130A10E1F700C00000BE01695F7F4FCE0142963E
S1130A200E943605892B71F482ED90E00E940B023E
S1130A309FEBE7E2F9E09150E040F040E1F700C0BD
S1130A4000002ACF80EE90E00E940B022FEB87E299
S1130A5099E0215080409040E1F700C000001CCF95
S1130A60EE0FFF1F0590F491E02D0994FB01DC01CA
S1130A708D91019080190110D9F3990B0895F89480
S1050A80FFCFA2
S1130A823132333435363738392A302357454C43DB
S1130A924F4D4500312D7265736574207061737317
S1130AA2776F726400322D5369676E20696E004558
S1130AB26E7465722074686520636F64650054689F
S1130AC265206E65772070617373776F726400734B
S1130AD2756363657373004E6F7420616C6C6F771A
S1130AE2656400456E7465722070617373776F720A
S1130AF2640057656C636F6D6520596568696100B0
S1130B0257726F6E672070617373776F7264002A15
S10D0B1223302A230039363139005C
S9030000FC
